:02000002D0002C
:1040000000400D00E0560D00000006000C00050108
:0840100004017E050000000020
:0440180098520D00AD
:10401C0009480A49884208B505D0094A824202D0AB
:10402C00121A01F0EFF80748074A0021121A01F0A2
:10403C00F4F8014808BD00BF5CE3032050560D00A6
:10404C00C4E30320C4E30320F0E7032070B500F0C1
:10405C00BFFB074C074BE41AA40800251E46A542DB
:10406C0004D056F8253098470135F8E770BD00BFED
:10407C004C560D0010560D0000F014B808B500F0A9
:10408C002BF8BDE8084000F071BB00F02DBA00F031
:10409C002BBA0078B0FA80F0400970470123037006
:1040AC007047000008B500F02FFF00F067FD00F02E
:1040BC0083FC4FF4165100F06DFC00F07DFC00F019
:1040CC0070FC0028F9D000F077FC0249BDE80840EC
:1040DC0000F0B9BAAC520D0038B500F06DFC2849AF
:1040EC0000F0B1FA0025012400F00EFF214600F08B
:1040FC004BFD00F009FF00F04FFDC0B900F05CFC77
:10410C00204900F08DFA0F2C04D800F055FC1E4904
:10411C0000F086FA00F050FC1022214600F0CAFA9A
:10412C0000F04AFC194900F08EFA013513E004281E
:10413C0011D100F041FC164900F072FA0F2C04D892
:10414C0000F03AFC104900F06BFA00F035FC10223C
:10415C00214600F0B1FA0134E4B27F2CC4D11DB970
:10416C0000F02AFC0B4902E000F026FC0A4900F0A2
:10417C006AFA41F28830BDE8384000F0B9BA00BFA5
:10418C00B9520D00C5520D00E4520D00E6520D005F
:10419C00EA520D0006530D001C530D0000F010B830
:1041AC0008B5024B1B689B68019308BD68020300AD
:1041BC0008B5024B1B68DB68019308BD680203005D
:1041CC0008B5024B1B681B68019308BD2C02030049
:1041DC0008B5024B1B68DB69019308BD3002030074
:1041EC0008B5024B1B685B68019308BD18020300FD
:1041FC0008B5024B1B685B69019308BD18020300EC
:10420C0008B5024B1B689B68019308BD480203006C
:10421C0008B5024B1B681B69019308BD48020300DB
:10422C0008B5024B1B685B69019308BD480203008B
:10423C0008B5024B1B681B6B019308BD48020300B9
:10424C0008B5024B1B685B6C019308BD4802030068
:10425C0008B5024B1B685B69019308BD640203003F
:10426C0008B5024B1B681B68019308BD3C02030098
:10427C0008B5024B1B68DB68019308BD3C020300C8
:10428C0008B5024B1B681B69019308BD3C02030077
:10429C0008B5024B1B685B69019308BD3C02030027
:1042AC0008B5024B1B689B69019308BD3C020300D7
:1042BC0008B5024B1B68DB69019308BD3C02030087
:1042CC0008B5024B1B689B6A019308BD3C020300B6
:1042DC0008B5024B1B68DB68019308BD280203007C
:1042EC0008B5024B1B689B69019308BD28020300AB
:1042FC0008B5024B1B68DB69019308BD280203005B
:10430C0008B5024B1B681B6A019308BD2802030009
:10431C0008B5024B1B685B6A019308BD28020300B9
:10432C0008B5024B1B689B6A019308BD2802030069
:10433C0008B5024B1B68DB6A019308BD2802030019
:10434C0008B5024B1B681B6B019308BD28020300C8
:10435C0008B5024B1B681B6C019308BD28020300B7
:10436C0008B5024B1B681B68019308BD4C02030087
:10437C0008B5024B1B685B68019308BD4C02030037
:10438C0008B5024B1B681B69019308BD4C02030066
:10439C0008B5024B1B685B69019308BD4C02030016
:1043AC0008B5024B1B689B69019308BD4C020300C6
:1043BC0008B5024B1B68DB69019308BD4C02030076
:1043CC0008B5024B1B681B6A019308BD4C02030025
:1043DC0008B5024B1B685B6A019308BD4C020300D5
:1043EC0008B5024B1B685B68019308BD20020300F3
:1043FC0008B5024B1B685B69019308BD20020300E2
:10440C0008B5034B1B68D3F88830019308BD000036
:10441C002002030008B5034B1B68D3F894300193BA
:10442C0008BD00002002030008B5024B1B685B6846
:10443C00019308BD4002030008B5024B1B689B6842
:10444C00019308BD4002030008B5024B1B68DB68F2
:10445C00019308BD4002030008B5024B1B681B69A1
:10446C00019308BD4002030008B5024B1B685B6951
:10447C00019308BD4002030008B5024B1B689B6901
:10448C00019308BD4002030008B5024B1B68DB69B1
:10449C00019308BD4002030008B5024B1B681B6A60
:1044AC00019308BD4002030008B5024B1B681B6B4F
:1044BC00019308BD4002030008B5024B1B685B6BFF
:1044CC00019308BD4002030008B5024B1B68DB6B6F
:1044DC00019308BD4402030008B5024B1B681B681E
:1044EC00019308BD1C02030008B5024B1B685B68F6
:1044FC00019308BD1C020300002211464068FFF71F
:10450C00CBBF002211464068FFF7D6BF002240689F
:10451C00FFF7CABF002281F001014068FFF7B4BF6A
:10452C0000231A4619464068FFF7A6BF00231A4617
:10453C0019464068FFF798BF002211464068FFF704
:10454C008BBF002211464068FFF776BF0022022184
:10455C004068FFF779BF00231A464068FFF764BF35
:10456C00024B03225A60024A1A607047C8E30320C8
:10457C002C530D00704710B51021044600F0E9FCD7
:10458C00204610BD70B5084B0360044600250E464E
:10459C0040F80C5FFFF74CFE30462671FFF718FE13
:1045AC00A560204670BD00BF60530D00044B002079
:1045BC004FF6FF72187058809A80FFF711BF00BF3A
:1045CC00D0E30320024800230360FFF739BE00BF8D
:1045DC00D8E30320F8B506460D468F180024BD42DB
:1045EC000CD0336815F8011B9B683046984700289F
:1045FC0001DB0444F3E7002C08BF04462046F8BD59
:10460C0070B505460C46084649B100F037FE2B68DC
:10461C00024621462846DB68BDE87040184770BD4D
:10462C0008B5FFF7EDFF08BD03689B68184738B560
:10463C000D210546FFF7F8FF0A2104462846FFF72F
:10464C00F3FF204438BD38B50546FFF7D9FF0446C3
:10465C002846FFF7ECFF204438BD30B58BB00B4635
:10466C0000218DF82410012A98BF0A220DF1230491
:10467C00B3FBF2F505FB123303F0FF03092B94BFD8
:10468C0030333733DBB2214604F801392B46002D89
:10469C00EED1FFF7B5FF0BB030BD10B42AB90368EB
:1046AC005DF8044B9B68C9B21847D2B25DF8044B55
:1046BC00FFF7D3BFFFF7F1BF38B50546FFF7EDFFA6
:1046CC0004462846FFF7B3FF204438BD014B024A8D
:1046DC001A607047DCE30320DB530D00024B1A68B1
:1046EC00024B1A60704700BF5CE30320E0E3032039
:1046FC000021FFF77DBE10B58368044613B1032279
:10470C0001469847204610BD10B50446FFF7F3FF4D
:10471C00204610BD0348044A04490023836000F07E
:10472C0013BC00BFE4E30320C4E3032015470D00D2
:10473C0008B50C4B33B100F03FF903681B6998477F
:10474C00002809DC084B63B100F0B4F903681B695D
:10475C009847002803DC08BDAFF30080F2E7AFF305
:10476C00008008BD000000000000000008B5FFF745
:10477C00DFFFFFF73DFD014B186008BD34E7032058
:10478C0007B5002300931A466FF07701FFF742FE3E
:10479C0003B05DF804FB000007B543880A2B08D072
:1047AC00502B09D1094B1B683BB103B05DF804EBEE
:1047BC001847FFF7E5FF06E0002300931A466FF059
:1047CC007701FFF727FE03B05DF804FBF4E3032049
:1047DC0010B5FFF705FD044600F028FD074B13B19B
:1047EC002046AFF3008000210448FFF76DFE002146
:1047FC000348BDE81040FFF703BE00BF00000000F7
:10480C00A5470D00704710B51821044600F0A1FB18
:10481C00204610BDF0B5037D062B8DB00E4600F181
:10482C0004074FF0000402D000F1080518E00CADAD
:10483C00394605F8304D2F232A460A20FFF708FD8C
:10484C00284600F01BFD33680246DB6829463046DB
:10485C0098470FE024B12E213046FFF7E5FE0444C3
:10486C0015F8011D0A223046FFF724FFBD4204440F
:10487C00F0D120460DB0F0BD10B5054B0446112209
:10488C0040F8043B002100F0C8FC204610BD00BFDE
:10489C007C540D000346074A10B543F8042B01F174
:1048AC00100251F8044B43F8044B9142F9D10A78A9
:1048BC001A7010BD7C540D0010B59DF8084044EAE8
:1048CC00032343EA024242EA016104234160037577
:1048DC0010BD37B50D788B784A78C9780091294688
:1048EC00FFF7EAFF03B030BD41747047704708B55D
:1048FC000021007CFFF754FD30EA200028BF4FF068
:10490C00FF3008BD08B50121007CFFF749FD30EAF6
:10491C00200028BF4FF0FF3008BD08B5007CFFF722
:10492C0037FD20EAE07008BD08B5007CFFF728FDD4
:10493C0020EAE07008BD007CFFF742BD10B51421E1
:10494C00044600F006FB204610BD38B50446007C3A
:10495C000D46FFF71DFD002801DC607C28B12946BF
:10496C00207CFFF725FD20EAE07038BD10B5044629
:10497C00002363604FF47A73A360054B236001231B
:10498C000846217463741146FFF7EAFC204610BDFB
:10499C0090540D000022007CFFF7EABC007CFFF76E
:1049AC0017BDFFF7FBBF10B514220446002100F021
:1049BC0034FC204610BD000030B50E4D87B001A868
:1049CC00FFF7F1FF296811F0010410D12846FFF719
:1049DC0060FB60B101AA21460748FFF7C7FF2846D4
:1049EC00FFF75CFB054A0649034800F0ADFA0248A4
:1049FC0007B030BDF8E30320FCE30320C4E303203D
:104A0C00F9480D0070474174704708B5007CFFF7FA
:104A1C0057FC20EAE07008BD08B5007CFFF730FCBD
:104A2C0020EAE07008BD08B5007CFFF739FC30EADD
:104A3C00200028BF4FF0FF3008BD08B5007CFFF701
:104A4C0027FC30EA200028BF4FF0FF3008BD007C67
:104A5C00FFF72EBC10B51421044600F07AFA20465C
:104A6C0010BD70B5457C04460E4625B9007CFFF799
:104A7C0027FC002805DD3146207CBDE87040FFF79F
:104A8C00F7BB284670BD000010B504460846114619
:104A9C00002262604FF47A72A260054A2260012201
:104AAC00207462741A46FFF7DBFB204610BD00BF72
:104ABC00C0540D0038B50C4D296811F0010411D10A
:104ACC002846FFF7E6FA68B1084A094B094821461F
:104ADC00FFF7DAFF2846FFF7E1FA074A07490548CE
:104AEC0000F032FA034838BDA8E40320ACE40320FC
:104AFC0024E4032010E40320C4E30320114A0D0036
:104B0C007047F8B5064615460C468F18BC4206D0C1
:104B1C00336814F8011B9B6830469847F6E7284623
:104B2C00F8BD0022007CFFF7EBBB0021007CFFF7F7
:104B3C00EFBB0021007CFFF7F3BB0021007CFFF7EB
:104B4C00F7BB0021007CFFF7FBBB10B5142104461A
:104B5C0000F0FFF9204610BD10B504464FF47A73EF
:104B6C000846A3600021044B207461602360FFF7AA
:104B7C00EFFB204610BD00BFF0540D0000231A4679
:104B8C001946007CFFF7A4BB0022007CFFF7A8BBF2
:104B9C000022007CFFF7ACBB0121FFF7F9BF00221C
:104BAC0011464068FFF778BC002211464068FFF7B9
:104BBC0083BC00224068FFF777BC002281F0010122
:104BCC004068FFF761BC00231A4601214068FFF7DB
:104BDC0053BC00231A4619464068FFF745BC002217
:104BEC0011464068FFF738BC002211464068FFF7B9
:104BFC0023BC002202214068FFF726BC00231A4682
:104C0C004068FFF711BC38B5054688B104684CB153
:104C1C00A3681BB103222146204698471021204649
:104C2C0000F097F928461421BDE8384000F091B9FE
:104C3C0038BD10B103685B681847704710B503683E
:104C4C000446BBB15868FFF7DBFA78B923685A7C85
:104C5C0012B95868FFF7DCFA23685868FFF7E0FAD6
:104C6C0020680023236028B1FFF7CDFF206808B12E
:104C7C00FFF7C9FF204610BD38B50C4B0360044646
:104C8C00D0F8CC0108B1FFF702FAD4F8C45135B111
:104C9C002846FFF7D3FF0421284600F05AF9A068F4
:104CAC0008B1FFF7C6FF204638BD00BF18550D00F0
:104CBC0038B50E4C0E4B23600025022304F5E4702E
:104CCC006360A560C4F8C451C4F8C851FFF7B8FAC2
:104CDC00084BC4F8CC5184F8D05123602046064AC6
:104CEC000649BDE8384000F02FB900BF30E503207D
:104CFC0080550D0018550D00C4E30320854C0D00A4
:104D0C00002211464068FFF7A7BB002211464068FD
:104D1C00FFF7C2BB002211464068FFF7CDBB002253
:104D2C004068FFF7C1BB002281F001014068FFF72A
:104D3C00ABBB00231A4619464068FFF79DBB002306
:104D4C001A4619464068FFF78FBB0022114640688F
:104D5C00FFF772BB002202214068FFF775BB0023EE
:104D6C001A464068FFF760BB024B04225A60024AA5
:104D7C001A60704704E703204C550D0000231A46B7
:104D8C004068FFF751BB002202214068FFF75CBB73
:104D9C00002211464068FFF74FBB002211464068C5
:104DAC00FFF75ABB00231A4619464068FFF75CBB55
:104DBC0000231A4619464068FFF75EBB002281F0BB
:104DCC0001014068FFF760BB00224068FFF76CBB35
:104DDC00002211464068FFF76FBB00221146406865
:104DEC00FFF75ABB2DE9F043002495B016460D464B
:104DFC000746FFF741FD214620220CA8009400F045
:104E0C000CFA40230C9321466B460CAA3046FFF754
:104E1C00CFF90446002844D1024601216868FFF707
:104E2C001BFB0221804622466868FFF715FB009E9B
:104E3C0081462146002E34D0002932D17368022BD2
:104E4C0002D00A2B09D02AE0B8F1000F27D07169E3
:104E5C0038460431FFF73DFD20E0B9F1000F1ED0BC
:104E6C007469112201A800F0D8F906238DF81430CA
:104E7C0001AD04F108031834186859682A4603C2B6
:104E8C000833A3421546F7D101A906A807ADFFF7D1
:104E9C0001FD0FCD3C1D0FC42B6823700121F66959
:104EAC00C8E70098FFF77CF9384615B0BDE8F083E9
:104EBC00024B034A1A6000225A6070470CE7032029
:104ECC0080550D0070B50C4C0C4E0D4D002120463C
:104EDC00FFF758FB20460B4C3246294600F034F8BD
:104EEC0001212046FFF74EFB324629462046BDE8FD
:104EFC00704000F029B800BF14E70320C4E303207E
:104F0C0081450D0024E7032038B50B4D296811F0BD
:104F1C0001040FD12846FFF7BCF858B121460748C9
:104F2C00FFF71AFE2846FFF7B9F8054A054903486A
:104F3C0000F00AF8014838BD38E703203CE70320AD
:104F4C00C4E303200D4B0D000B460146184600F040
:104F5C004BB9FFF79AB80000184B1A68D1075CBF21
:104F6C0001221A60164B1A68D2075CBF01221A6024
:104F7C00144B1A68D0075CBF01221A60124B1A68D6
:104F8C00D1075CBF01221A60104B1A68D2075CBFB4
:104F9C0001221A600E4B1A68D0075CBF01221A60FE
:104FAC000C4B1A68D1075CBF01221A600A4B1A68B5
:104FBC00D2075CBF01221A60704700BF6CE7032068
:104FCC0068E7032064E7032060E703205CE7032025
:104FDC0058E7032054E7032050E70320244B1A68BA
:104FEC00D0075CBF01221A60224B1A68D1075CBF44
:104FFC0001221A60204B1A68D2075CBF01221A608A
:10500C001E4B1A68D0075CBF01221A601C4B1A6831
:10501C00D1075CBF01221A601A4B1A68D2075CBF19
:10502C0001221A60184B1A68D0075CBF01221A6063
:10503C00164B1A68D1075CBF01221A60144B1A6810
:10504C00D2075CBF01221A60124B1A68D0075CBFF2
:10505C0001221A60104B1A68D1075CBF01221A603A
:10506C000E4B1A68D2075CBF01221A60704700BF52
:10507C009CE7032098E7032094E7032090E70320A4
:10508C008CE7032088E7032084E7032080E70320D4
:10509C007CE7032078E7032074E7032070E7032004
:1050AC00244B1A68D0075CBF01221A60224B1A6885
:1050BC00D1075CBF01221A60204B1A68D2075CBF73
:1050CC0001221A601E4B1A68D0075CBF01221A60BD
:1050DC001C4B1A68D1075CBF01221A601A4B1A6864
:1050EC00D2075CBF01221A60184B1A68D0075CBF4C
:1050FC0001221A60164B1A68D1075CBF01221A6094
:10510C00144B1A68D2075CBF01221A60124B1A6842
:10511C00D0075CBF01221A60104B1A68D1075CBF24
:10512C0001221A600E4B1A68D2075CBF01221A606A
:10513C00704700BFCCE70320C8E70320C4E7032077
:10514C00C0E70320BCE70320B8E70320B4E7032043
:10515C00B0E70320ACE70320A8E70320A4E7032073
:10516C00A0E70320184B1A68D1075CBF01221A6014
:10517C00164B1A68D2075CBF01221A60144B1A68CE
:10518C00D0075CBF01221A60124B1A68D1075CBFB2
:10519C0001221A60104B1A68D2075CBF01221A60F8
:1051AC000E4B1A68D0075CBF01221A600C4B1A68B0
:1051BC00D1075CBF01221A600A4B1A68D2075CBF88
:1051CC0001221A60704700BFECE70320E8E70320D8
:1051DC00E4E70320E0E70320DCE70320D8E7032023
:1051EC00D4E70320D0E7032010B5054C13462CB1AF
:1051FC000A4601460220AFF3008010BD204610BDC8
:10520C000000000010B5431E0A44914204D011F86E
:10521C00014B03F8014FF8E710BD024403469342DB
:10522C0002D003F8011BFAE77047000038B5124BA7
:10523C001C68A36B0546D3B91820FFF74DF943F250
:10524C000E33A06303804AF6CD33438041F23423FE
:10525C0083804EF26D63C3804DF6EC6303810523AE
:10526C0043810B23838101220023C0E90423A36B18
:10527C0000221D615A6138BDC0E30320034613F8B8
:10528C00012B002AFBD1181A013870471D400D0064
:10529C0059400D0085400D0089400D0000000000B4
:1052AC000A493243205363616E6E65720053636129
:1052BC006E6E696E672E2E2E004932432064657621
:1052CC0069636520666F756E642061742061646427
:1052DC007265737320307800300020202100556EE9
:1052EC006B6E6F776E206572726F722061742061C5
:1052FC00646472657373203078004E6F20493243BA
:10530C00206465766963657320666F756E640A0048
:10531C00646F6E650A0000000000000000000000D1
:10532C0063450D0059450D004F450D0045450D00D9
:10533C0039450D002D450D0021450D0019450D0079
:10534C000F450D0005450D00F14D0D00000000004E
:10535C000000000081450D0083450D0062617564FD
:10536C000053657269616C0053657269616C310040
:10537C007479706500706172616D00636D640069B1
:10538C006400686E64007374726D0066696C7400FE
:10539C006C766C0061646448616E646C657200725A
:1053AC00656D6F766548616E646C657200656E75CF
:1053BC006D48616E646C657273004A534F4E537442
:1053CC007265616D4C6F6748616E646C65720061EB
:1053DC00707000253031307520005D200025640090
:1053EC002C200028293A2000205B00636F64652084
:1053FC003D200025690064657461696C73203D2053
:10540C00000D0A0066006C6E00666E00636F6465CA
:10541C000064657461696C006E6F6E650074726116
:10542C00636500696E666F007761726E00657272FB
:10543C006F720070616E696300616C6C005A0025BC
:10544C002B3033643A253032750025592D256D2DBE
:10545C0025645425483A254D3A2553257A00617325
:10546C006374696D6500000000000000000000001E
:10547C0021480D0011480D0013480D0000000000DC
:10548C0000000000F9480D0049490D0057490D0076
:10549C00E1450D0035490D00FB480D0011490D008B
:1054AC0043490D0027490D00F5480D000000000090
:1054BC0000000000114A0D00614A0D006F4A0D00FA
:1054CC00E1450D00254A0D00474A0D00334A0D00F9
:1054DC005B4A0D00134A0D00174A0D000000000036
:1054EC00000000000D4B0D00574B0D002F4B0D0015
:1054FC000F4B0D00374B0D003F4B0D00474B0D0074
:10550C004F4B0D000000000000000000094C0D0086
:10551C00FF4B0D00F54B0D00EB4B0D00DF4B0D0061
:10552C00D34B0D00C74B0D00BF4B0D00B54B0D0001
:10553C00AB4B0D00F14D0D00000000000000000011
:10554C006B4D0D00614D0D00574D0D000D4D0D00B7
:10555C004B4D0D003F4D0D00334D0D002B4D0D00EF
:10556C00214D0D00174D0D00F14D0D0000000000F8
:10557C0000000000894D0D00934D0D009D4D0D0058
:10558C00A74D0D00B14D0D00BD4D0D00C94D0D00C9
:10559C00D54D0D00DD4D0D00E74D0D00F14D0D000D
:1055AC0000000000000000000000000000000000EF
:1055BC0000000000000000000000000000000000DF
:1055CC0000000000000000000000000000000000CF
:1055DC0000000000000000000000000000000000BF
:1055EC0000000000000000000000000000000000AF
:1055FC00000000000000000000000000000000009F
:10560C0043000000A9410D006D450D00B9450D008A
:10561C00D1450D00D9460D00E9460D0021470D007E
:10562C00BD4C0D00754D0D00BD4E0D00D14E0D0045
:10563C00654F0D00E94F0D00AD500D0071510D007F
:04564C00000000005A
:105650006A540D0000000000AC550D00CC550D0043
:10566000EC550D00000000000000000000000000EC
:10567000000000000C560D000000000000000000BB
:10568000000000000000000000000000000000001A
:10569000000000000000000000000000000000000A
:1056A00000000000000000000000000000000000FA
:0856B0000000000060E303208C
:1056B800FFFFFFFF00000102030405060708090AAF
:1056C8000B0C0D0E0F101112131415161718191AAA
:0856D8001B1C1D1E1F202800F1
:0456E00078563412B2
:04000003D000401CCD
:00000001FF
